:100000000C94C9010C9409050C941A050C94E60192
:100010000C94E6010C94E6010C94E6010C94E601C4
:100020000C94E6010C94B1040C94E6010C94E601E6
:100030000C94E6010C94E6010C94E6010C94E601A4
:100040000C94E6010C94E6010C94E6010C94E60194
:100050000C94E60177069E06B106B106AB06AD0626
:10006000AF067506A106A306A506A706A90675068E
:10007000A106A306A506A706A906AF06AB06AD0610
:100080002020202020202020202020202020202070
:10009000004175746F57656C64696E672076312E08
:1000A00030004175746F20285061757365202020E1
:1000B000202900204D6F64652069732053696D709D
:1000C0006C6520003720483A203330204D3A3520E7
:1000D000493A33200050723A3435302A33302046C2
:1000E000673A313130005072655072657373696ED2
:1000F000672020203020005072657373696E67207E
:10010000202020202020200048656174696E67202F
:100110002020202020202020004D6F64756C617409
:10012000696F6E20202020202000466F7267696E64
:100130006720202020202020202000437572726537
:100140006E7420202020202020202000202020202D
:1001500045646974696E673A202020200043686F07
:100160006F7365206D656E753A20202020005072F7
:100170006F6772616D2073657474696E6773004395
:100180006F6D6D6F6E2073657474696E6773200098
:1001900043686F6F736520706172616D657465721D
:1001A000004D6F646520202020202020202020206A
:1001B0002000506175736520202020202020202001
:1001C0002020002020506172616D65746572206886
:1001D000617320002020206265656E207361766562
:1001E0006421202000506172616D65746572206821
:1001F00061736E2774002057656C64696E672069AF
:10020000732020202020002020202020636F6D708C
:100210006C6574656421200053746172742050729F
:100220006F6772616D2030310020507265737369A1
:100230006E67206973202020200020486561746962
:100240006E6720697320202020200020466F72678F
:10025000696E6720697320202020200020206973A8
:10026000204175746F0069732053696D706C65006F
:100270002020202020202072756E6E696E6721205C
:100280000052656164792120507573682020202018
:1002900020002020706564616C20666F7220776595
:1002A0006C64002020205061757365202020202080
:1002B000202020002057656C636F6D6520746F20CF
:1002C00074686520002020206175746F2077656C4C
:1002D00064696E6721002044656D6F2076657273D6
:1002E000696F6E2020200020202044656D6F2076ED
:1002F000657273696F6E2000009100B300600801A1
:10030000C400D5008308025D016E014408035D014D
:100310007F012808049001A101FC07059001B201AA
:10032000DA07067F011802C507079001E600990762
:10033000089001F7007707099001080155070A9016
:10034000012A0133070B9001190111070C90013BA1
:1003500001EF060D4C01E600860B0E4C01F7003351
:100360000B0F4C010801E20A104C012A01910A11FD
:100370004C011901400A124C013B01EF09134C01D9
:1003800018029D09144C01A1014509154C01B20147
:10039000E80811241FBECFE5D4E0DEBFCDBF10E0DA
:1003A000A0E6B0E0E4EFF0E202C005900D92A237C3
:1003B000B107D9F710E0A2E7B0E001C01D92AE3856
:1003C000B107E1F70E947D050C9478100C94380574
:1003D000E6B3E095E695E695E150E83028F4F0E0E4
:1003E000EF59FF4F8081089580E008951F93CF93C8
:1003F000DF93182F9B01EB01CC0FDD1F83E0220F51
:10040000331F8A95E1F7C20FD31F0DC087EE93E02B
:100410000197F1F700C000000E94E801181731F4BD
:100420000E947B0C2197209789F701C010E0812F53
:10043000DF91CF911F9108950E94E80161E070E083
:100440000E94F601882361F190917300992329F4A9
:100450008093730010927200089580916000882349
:1004600039F01092600081E08093720064E60EC063
:1004700080917200282F2F5F209372008E3128F018
:100480008EE18093720061E001C064E0892F70E02A
:100490000E94F601982F9150923048F0882341F441
:1004A00081E0809360001092730080E0089580E006
:1004B00008951F93182F862F642F0E943604812FD2
:1004C0000E944A041F910895FF920F931F93282FB3
:1004D000362F64E60E943C10082F892F005D5AE0F9
:1004E000652F0E943C10182F105D822F0E943C1037
:1004F000F92E80E3F80E832F642F0E943604003318
:1005000039F480E20E942C04103329F480E204C004
:10051000802F0E942C04812F0E942C048F2D0E947A
:100520002C041F910F91FF9008950F931F93262F76
:100530006AE00E943C10092F005D182F105D822F89
:10054000642F0E943604103311F480E201C0812F21
:100550000E942C04802F0E942C041F910F9108955B
:100560001F93182F862F642F0E943604812F6AE074
:100570000E943C10892F805D0E942C041F910895D9
:10058000CF92DF92EF92FF921F93DF93CF930F9260
:10059000CDB7DEB76C01623031F0182F982F492F9C
:1005A0005D2D6A0110C0FC0180810E944A04F601A1
:1005B00081810E944A040BC0F60181916F01698319
:1005C0000E944A0469818C2D811B8617A8F30F9025
:1005D000CF91DF911F91FF90EF90DF90CF90089522
:1005E0009F92AF92BF92CF92DF92EF92FF920F93C2
:1005F0001F93DF93CF93CDB7DEB7A0970FB6F894D4
:10060000DEBF0FBECDBF84E00E94660C0E94460490
:100610007E010894E11CF11CC70164EB72E040E12B
:1006200050E00E946F1051E1C52ED12CCC0EDD1E82
:10063000C60165EC72E040E150E00E946F1000E1FD
:1006400010E0BB24B3949E2CAF2C76010E94420490
:10065000802F60E00E943604892D9A2D6B2D0E9418
:10066000C00280E061E00E943604C701800F911F44
:100670006B2D0E94C0028FEB94EDA1E08150904061
:10068000A040E1F700C000000E947B0C92E0B90E90
:1006900002501040AB2DA331C9F684EB92E00E94CA
:1006A0006B0480E061E00E94360485EC92E00E94D9
:1006B0006B0404E18FE798E3A1E081509040A040F3
:1006C000E1F700C000000E947B0C015099F700E0A8
:1006D00010E0BB247E010894E11CF11C40E1A42E33
:1006E00031E1C32ED12CCC0EDD1E0E944204C80184
:1006F000880F991F6A2D6B198E0D9F1D0E94C002D5
:100700008B2D61E00E943604C60160E10E94C002A8
:100710008FEB94EDA1E081509040A040E1F700C044
:1007200000000E947B0C92E0B90E0F5F1F4FAB2DB3
:10073000A231D9F6A0960FB6F894DEBF0FBECDBF9A
:10074000CF91DF911F910F91FF90EF90DF90CF90AD
:10075000BF90AF909F90089580E060E00E943604C3
:1007600081E892E00E946B0480E061E00E94360420
:1007700082E992E00E946B040895009711F400C092
:1007800008950197F1F70895DB9A00C0DB9808956A
:100790001F93662311F0D99A01C0D998DA98D49A98
:1007A000D59AD69AD79ADF98DE98DD98DC9887FD9F
:1007B000DF9A182F86FDDE9A15FDDD9A14FDDC9A6E
:1007C0000E94C403DF98DE98DD98DC9813FDDF9A61
:1007D00012FDDE9A11FDDD9A10FDDC9A0E94C40321
:1007E000DC9ADD9ADE9ADF9A1F910895D998DA9AF9
:1007F000D498D598D698D798DB9A00C0CC9902C0E7
:1008000080E001C080E1CD998062CE998064CF996B
:100810008068DB9800C0DB9A00C0CC998160CD99DC
:100820008260CE998460CF998860DB9808950E9499
:10083000F60387FDFCCF82E090E00E94BD030E949A
:10084000F60308951F93182F0E941704812F60E06C
:100850000E94C8031F9108951F93182F0E94170428
:10086000812F61E00E94C8031F910895662311F44F
:10087000805801C080540E94220408950E941704E9
:1008800090E0089581E00E942204089582E00E9491
:10089000220408951F93182F0E9417041A3049F458
:1008A000803410F480E401C080E080580E9422046B
:1008B00004C0812F61E00E94C8031F910895CF9367
:1008C000DF93EC0102C00E944A0489918823D9F782
:1008D000DF91CF910895CF93DF93EC0102C00E9486
:1008E0004A04FE01219684918823C9F7DF91CF91B4
:1008F00008951F93182FD19AD29AD39AD49AD59A41
:10090000D69AD79A80E89EE30E94BD03DD9ADC9ACE
:100910000E94C40380E893E10E94BD030E94C403C7
:1009200080E490E00E94BD030E94C40380E490E054
:100930000E94BD03DC980E94C40380E490E00E9402
:10094000BD0388E20E94220488E00E9422040E94E3
:10095000420486E00E942204812F0E9422041F91FB
:1009600008951F920F920FB60F9211248F939F93A9
:10097000AF93BF9381EC82BF80917400909175001A
:10098000A0917600B09177000196A11DB11D8093D2
:10099000740090937500A0937600B09377008091D7
:1009A000890090918A00A0918B00B0918C000097F3
:1009B000A105B10599F08091890090918A00A091DC
:1009C0008B00B0918C000197A109B1098093890037
:1009D00090938A00A0938B00B0938C008091880044
:1009E000882331F08091880081508093880008C06E
:1009F00084E18093880080918D00806180938D00D8
:100A0000BF91AF919F918F910F900FBE0F901F904C
:100A100018951F920F920FB60F9211248F93809109
:100A20008D00846080938D008F910F900FBE0F908A
:100A30001F9018951F920F920FB60F9211248F934B
:100A400080918D0085FF08C080918D008F7D8093FF
:100A50008D00909AA89A06C080918D008062809344
:100A60008D00A8988F910F900FBE0F901F90189532
:100A70001F920F920FB60F9211248F9388E181BDC0
:100A8000FFCF81E089BF81EC82BF83E083BF85B760
:100A90008B6085BF80EC8BBF80B7846080BF889AF5
:100AA000909AB89AC09AB99AC19A8FEF84BB85BBC5
:100AB0008BB780648BBF7894089584E1809388001D
:100AC00080918D00806280938D0080E061E00E94C3
:100AD000980C089584E00E94660C0E9441050E94D3
:100AE0005D050E949D0F8CE00E9479040E94F00237
:100AF0008FEF92E00E94C30608950E946A0582E08B
:100B00000E94660C0E947B0C0E94D906B699FACF0F
:100B10000E94C0068130B1F70E94A30E02C00E945D
:100B20007B0CB69904C00E94E30F8430C1F70E9489
:100B3000A70E8FEF92E00E94C306E4CFCF93DF931E
:100B4000EC0180E060E00E94360489819A810E9475
:100B50006B0480E061E00E9436048B819C810E94DE
:100B60006B04DF91CF910895CF93DF93EC0180E088
:100B70000E943604CE010E946B04DF91CF9108954C
:100B80001F93162F863028F4843080F4813041F48E
:100B90000DC0873029F0873060F08930F9F419C032
:100BA000812F6CE041E00E94640218C0812F6CE04C
:100BB00012C086E061E00E943604113019F486E626
:100BC00092E004C0112351F48CE592E00E946B0482
:100BD00005C0862F6EE041E00E9495020E94550CF0
:100BE0001F9108951F93182F87E00E94660C112310
:100BF00019F083EC91E002C085EE91E060E00E9484
:100C0000B40584ED91E061E00E94B4051AE00DC0E6
:100C10008FE798E3A1E081509040A040E1F700C049
:100C200000000E941C02882311F4115088F782E012
:100C30000E94660C1F9108951F93182F80E060E0BA
:100C40000E9436041330B9F0143028F4113069F0E2
:100C5000123070F407C01530A1F0153078F016305E
:100C6000B1F412C084EC90E014C086EE90E011C0A4
:100C700089E292E00EC08AE392E00BC08BE492E03E
:100C800008C086EF91E005C083EA92E002C080E8E8
:100C900090E00E946B0480E061E00E943604153011
:100CA00018F4113050F403C0153051F403C085ED31
:100CB00090E008C087E092E005C080E792E002C0C3
:100CC00080E890E00E946B041F9108951F93E82F25
:100CD000F0E0E631F10508F044C0E65DFF4FEE0FAD
:100CE000FF1F0590F491E02D099410E03BC080E0D7
:100CF00061E00E943604E0916F00F0917000099568
:100D00008823B9F482EA90E00E946B04E0916B00C2
:100D1000F0916C00099590E0019623E0880F991FEF
:100D20002A95E1F70E94870C6CE041E00E94640282
:100D300025C083EB90E00E946B0420C00E94B40F9A
:100D40001DC011E00FC012E00DC013E00BC014E095
:100D500009C015E007C016E005C017E003C019E0A0
:100D600001C01FEF8450823148F41F3F39F0812FBA
:100D70000E94B30E682F812F0E94C0051F91089515
:100D80008091FF020895CF93DF93BC01CFEFD2E0B3
:100D9000CE0147E050E00E946F10CE010E949E05F8
:100DA0008091FF020E9466060E94550CDF91CF9150
:100DB0000895E0910403F091050309958091FF02E5
:100DC000813061F060E375E780E090E00E94120CF2
:100DD000813021F48FEF92E00E94C3060895809144
:100DE0008D0084FF1DC00E941C028230A9F0833058
:100DF00018F48130A9F40BC0833019F0843081F4E9
:100E000003C085E493E005C084E193E002C086E07E
:100E100093E00E94C306089586E793E00E94C3060C
:100E2000089580918D0084FF1DC00E941C028230B5
:100E3000A9F0833018F48130A9F40BC0833019F085
:100E4000843081F403C08EE393E005C08CE493E02A
:100E500002C086E093E00E94C30608958FE693E007
:100E60000E94C306089580918D0084FF1DC00E94DA
:100E70001C028230A9F0833018F48130A9F40BC031
:100E8000833019F0843081F403C087E393E005C018
:100E900085E493E002C086E093E00E94C3060895D3
:100EA00088E693E00E94C306089580918D0084FF38
:100EB0001DC00E941C028230A9F0833018F48130DA
:100EC000A9F40BC0833019F0843081F403C080E3AF
:100ED00093E005C08EE393E002C086E093E00E94B9
:100EE000C306089581E693E00E94C30608958091A9
:100EF0008D0084FF1DC00E941C028230A9F0833047
:100F000018F48130A9F40BC0833019F0843081F4D7
:100F100003C089E293E005C087E393E002C086E066
:100F200093E00E94C30608958AE593E00E94C306F9
:100F3000089580918D0084FF27C00E941C0282309A
:100F4000F9F0833018F48130F9F415C0833019F0CA
:100F50008430D1F40DC0E0916F00F09170000995DC
:100F6000882319F48BE193E008C084E193E005C085
:100F700080E393E002C086E093E00E94C3060895F8
:100F800083E593E00E94C306089580918D0084FF5D
:100F900010C00E941C02813019F0823051F405C04B
:100FA0008DE093E00E94C30608958DE793E00E94D0
:100FB000C306089580918D0084FF1DC00E941C020D
:100FC0008230A9F0833018F48130A9F40BC083304B
:100FD00019F0843081F403C084E193E005C089E214
:100FE00093E002C086E093E00E94C30608958BE878
:100FF00093E00E94C306089580918D0084FF27C06E
:101000000E941C028230F9F0833018F48130F9F428
:1010100015C0833019F08430D1F403C08CE493E020
:101020000FC0E0916F00F09170000995882319F4CA
:101030008BE193E005C089E293E002C086E093E093
:101040000E94C306089584E893E00E94C3060895B1
:1010500080918D0084FF17C00E941C02823079F0BD
:10106000833018F4813079F405C0853060F486E06F
:1010700093E002C08FEF92E00E94C306089582E2DF
:1010800093E00E94C306089580918D0084FF17C0ED
:101090000E941C02823079F0833018F4813079F498
:1010A00005C0853060F48DE093E002C08FEF92E0E0
:1010B0000E94C306089589E293E00E94C306089542
:1010C0001F9387E00E94660C0E94550C13E004C039
:1010D0000E941C02882371F468EE73E080E090E0C7
:1010E0000E94120C8823A1F30E94550C0E947B0CD5
:1010F000115091F78FEF92E00E94C30682E00E94A8
:10110000660C1F910895CF93DF9380918D0084FF2B
:101110004CC00E941C02823009F443C0833020F48A
:10112000813009F042C03AC0833019F08430E9F5CB
:1011300018C0E0916B00F0916C000995882331F4A0
:10114000E0916900F0916A0089E017C0C0916900E0
:10115000D0916A00E0916B00F0916C00099581508C
:1011600018C0E0916B00F0916C000995893038F05F
:10117000E0916900F0916A0080E009950CC0C0918F
:101180006900D0916A00E0916B00F0916C000995C4
:101190008F5FFE0109950E94B40F07C088EF92E0AF
:1011A00002C086E093E00E94C306DF91CF910895CC
:1011B00008950E94120C813049F480E00E94F205EB
:1011C0008FEF92E00E94C30681E0089580E00895C9
:1011D0000F931F9382E00E94660CE0916B00F091E8
:1011E0006C00099590E0019623E0880F991F2A95DD
:1011F000E1F70E94870C082F81508A3F30F087E08A
:1012000061E00E94C00511E001C0102F80918D00A7
:1012100084FF30C00E947B0C0E941C028230E1F0EF
:10122000833018F4813031F515C0833019F08430E3
:1012300009F506C0113011F0115007C01AEF05C0B2
:101240001A3F11F01F5F01C011E087E0612F0E947B
:10125000C00510C080E007C0101721F087E0612FA3
:101260000E94CB0E81E00E94F2058BE193E00E9488
:10127000C30608C060E375E780E090E00E94D908EB
:10128000813021F61F910F9108950F931F9382E0F3
:101290000E94660CE0916B00F0916C00099590E063
:1012A00033E0880F991F3A95E1F707960E94870C63
:1012B000082F823030F086E061E00E94C00511E026
:1012C00001C0182F80918D0084FF2CC00E947B0CE0
:1012D0000E941C028230C1F0833018F4813011F575
:1012E00011C0833019F08430E9F406C086E061E073
:1012F0000E94C00511E016C086E060E00E94C005B3
:1013000010E010C080E007C0101721F086E0612FC8
:101310000E94CB0E81E00E94F20584E193E00E94DE
:10132000C30608C060E375E780E090E00E94D9083A
:10133000813041F61F910F9108950F931F9382E022
:101340000E94660C81E590E00E94870C082F8A308D
:1013500030F089E060E00E94C00510E001C0182F65
:1013600080918D0084FF30C00E947B0C0E941C0283
:101370008230E1F0833018F4813031F515C08330CC
:1013800019F0843009F506C0112311F0115007C07F
:1013900019E005C0193011F01F5F01C010E089E0AD
:1013A000612F0E94C00510C080E007C0101721F017
:1013B00089E0612F0E94CB0E81E00E94F20582E25B
:1013C00093E00E94C30608C060E375E780E090E008
:1013D0000E94D908813021F61F910F9108950F9333
:1013E0001F9382E00E94660C85E00E94B30E082FD6
:1013F0008A3030F085E060E00E94C00510E001C056
:10140000182F80918D0084FF30C00E947B0C0E94B9
:101410001C028230E1F0833018F4813031F515C0C0
:10142000833019F0843009F506C0112311F01150F2
:1014300007C019E005C0193011F01F5F01C010E0AE
:1014400085E0612F0E94C00510C080E007C0101722
:1014500021F085E0612F0E94CB0E81E00E94F20511
:101460008CE493E00E94C30608C060E375E780E067
:1014700090E00E94D908813021F61F910F910895C4
:101480000F931F9382E00E94660C84E00E94B30ECB
:10149000082F8A3030F084E060E00E94C00510E040
:1014A00001C0182F80918D0084FF30C00E947B0CFA
:1014B0000E941C028230E1F0833018F4813031F553
:1014C00015C0833019F0843009F506C0112311F0DE
:1014D000115007C019E005C0193011F01F5F01C09D
:1014E00010E084E0612F0E94C00510C080E007C0BA
:1014F000101721F084E0612F0E94CB0E81E00E9442
:10150000F20585E493E00E94C30608C060E375E736
:1015100080E090E00E94D908813021F61F910F9160
:1015200008950F931F9382E00E94660C83E00E944F
:10153000B30E082F8B3F30F083E061E00E94C005BE
:1015400011E001C0182F80918D0084FF30C00E94EF
:101550007B0C0E941C028230E1F0833018F4813051
:1015600031F515C0833019F0843009F506C012300A
:1015700010F0115007C01AEF05C01A3F11F01F5F9D
:1015800001C011E083E0612F0E94C00510C080E01F
:1015900007C0101721F083E0612F0E94CB0E81E07D
:1015A0000E94F2058EE393E00E94C30608C060E348
:1015B00075E780E090E00E94D908813021F61F9104
:1015C0000F9108950F931F9382E00E94660C82E0B2
:1015D0000E94B30E082F893C30F082E061E00E9447
:1015E000C00511E001C0182F80918D0084FF30C02C
:1015F0000E947B0C0E941C028230E1F0833018F4C0
:10160000813031F515C0833019F0843009F506C0FA
:10161000123010F0115007C018EC05C0183C11F042
:101620001F5F01C011E082E0612F0E94C00510C061
:1016300080E007C0101721F082E0612F0E94CB0EDE
:1016400081E00E94F20587E393E00E94C30608C090
:1016500060E375E780E090E00E94D908813021F6D0
:101660001F910F9108950F931F9382E00E94660CC3
:1016700081E00E94B30E082F843630F081E061E0F3
:101680000E94C00511E001C0182F0E94550C8091E6
:101690008D0084FF30C00E947B0C0E941C028230AF
:1016A000E1F0833018F4813031F515C0833019F042
:1016B000843009F506C0123010F0115007C013E64F
:1016C00005C0133611F01F5F01C011E081E0612FEA
:1016D0000E94C00510C080E007C0101721F081E013
:1016E000612F0E94CB0E81E00E94F20580E393E01F
:1016F0000E94C30608C060E375E780E090E00E94A6
:10170000D908813021F61F910F9108950F931F93EF
:1017100082E00E94660C80E00E94B30E082F8B3F8F
:1017200030F080E061E00E94C00511E001C0182F98
:101730000E94550C80918D0084FF30C00E947B0C6C
:101740000E941C028230E1F0833018F4813031F5C0
:1017500015C0833019F0843009F506C0123010F03E
:10176000115007C01AEF05C01A3F11F01F5F01C0EA
:1017700011E080E0612F0E94C00510C080E007C02A
:10178000101721F080E0612F0E94CB0E81E00E94B3
:10179000F20589E293E00E94C30608C060E375E7A2
:1017A00080E090E00E94D908813021F61F910F91CE
:1017B000089509C090918D00815092FD06C09AE075
:1017C0009A95F1F700C08823A9F7089584E008C02E
:1017D00099E09A95F1F7000090918D0092FD0AC072
:1017E0008150B0F700000000000000000000000081
:1017F00080E0089581E0089584E108C09AE09A9518
:10180000F1F700C090918D0092FD0AC08150B0F7B1
:1018100000000000000000000000000080E00895CB
:1018200081E00895CF92DF92EF92FF920F931F9382
:10183000C0907400D0907500E0907600F090770032
:10184000009178001091790020917A0030917B000E
:10185000C01AD10A9601442737FD4095542F261708
:10186000370748075907C0F46091780070917900F4
:1018700080917A0090917B002091740030917500E6
:101880004091760050917700E1E02617370748072E
:10189000590718F0E0E001C0E1E08E2F1F910F9191
:1018A000FF90EF90DF90CF90089580917400909119
:1018B0007500A0917600B0917700809378009093A6
:1018C0007900A0937A00B0937B000895883008F0E7
:1018D00087E08770886028E130E00FB6F894A8951B
:1018E00021BD0FBE81BD089588E10FB6F89481BD7A
:1018F00011BC0FBE0895A8950895E199FECFF89404
:101900009FBB8EBB6DBBE29AE19A78940895E199F2
:10191000FECF9FBB8EBBE09A8DB3089590918D0052
:1019200095FF04C0813011F490980895909A08951D
:10193000613061F495B321E030E002C0220F331F23
:101940008A95E2F72095292325BB089595B321E0D8
:1019500030E002C0220F331F8A95E2F7922B95BB2D
:101960000895682F813011F4C19801C0C19A86E0B2
:101970000E94980C0895682F813011F4C09801C01E
:10198000C09A87E00E94980C0895813029F460E0A5
:101990000E94980C82E005C082E060E00E94980CF2
:1019A00081E061E00E94980C089580918200089582
:1019B00080938300089580918300089590E023E050
:1019C000880F991F2A95E1F707960E94870C80934C
:1019D0008300823018F081E080938300809183003F
:1019E0000E94C50C0895809382000E94DE0C089529
:1019F0000F931F9382E00E94660C10917C001123CC
:101A000049F11F3128F081E00E941C0601E001C06D
:101A100000E081E00E94BB0C80918D008B7F809361
:101A20008D00002329F0812F6DE040E00E946402C8
:101A3000112319F40FC0B6990FC080918D0082FF59
:101A4000FACF115080918D008B7F80938D000E9482
:101A50007B0CE7CF81E001C080E01F910F910895DA
:101A60001F9310917D0082E00E94660C1123E9F023
:101A700082E00E941C0681E00E94B10C812F6EE082
:101A800040E00E949502112319F40FC0B79910C0CD
:101A900080918D0082FFFACF80918D008B7F8093A3
:101AA0008D000E947B0C1150E9CF81E01F910895B9
:101AB000B69BEECF80E0FACF0FC0B79915C081E09A
:101AC0000E948E0C0E94E60B882351F40E948E0C1B
:101AD0000E94FC0B882321F480918D0082FFEDCFC2
:101AE00080E00E948E0C0895B69BE9CFF9CF1F933A
:101AF00082E00E94660C83E00E941C0685E061E0A3
:101B00000E94980C80918D008B7F80938D001AE04D
:101B100002C0B79923C080918D0082FFFACF0E9446
:101B20007B0C80918D008B7F80938D00812F07C06F
:101B3000EDE0F1E03197F1F700C00000815088231B
:101B4000B9F787E59BE10197F1F700C000000E941B
:101B50005C0D115001F781E01F910895B69BDBCF1A
:101B600085E060E00E94980C80E0F6CFFF920F9332
:101B70001F93CF93DF9382E00E94660C80918100D7
:101B80008823F1F08A3048F490917E0020918500FE
:101B9000921718F49093850002C08093850080917D
:101BA0008000882369F09EEB899FC0011124609119
:101BB000850070E00E945C1070938700609386003F
:101BC00000917E0039E0F32ECAE0D0E03EC0B79924
:101BD00049C080918D0082FFFACF0E947B0C8091DA
:101BE0008D008B7F80938D00809180009F2D981BAE
:101BF000892F07C0E8E0F3E03197F1F700C000005B
:101C000081508823B9F7809180008823D9F0109102
:101C100085001123B9F08091860090918700BE0164
:101C20000E944810862F880F880F0E94D90B1150F0
:101C300091F780918D0083FD05C0809185008150D2
:101C4000809385000E945C0D0150002311F685E011
:101C500060E00E94980C81E0DF91CF911F910F917D
:101C6000FF900895B69BB5CF85E060E00E94980C88
:101C700080E0F2CF1F9382E00E94660C84E00E9415
:101C80001C0684E061E00E94980C10917F00812F77
:101C90006DE040E00E946402112319F40FC0B7996F
:101CA00017C080918D0082FFFACF80918D008B7FCD
:101CB00080938D000E947B0C1150E9CF80E00E9440
:101CC000B10C84E060E00E94980C81E01F910895BF
:101CD000B69BE7CF80E00E94B10C84E060E00E94F8
:101CE000980C80E0F3CF1F9382E00E94660C109165
:101CF000710086E00E941C0683E061E00E94980C5F
:101D0000812F6BE040E00E946402112319F40AC0A5
:101D1000B7990FC080918D0082FFFACF0E947B0C93
:101D20001150EECF83E060E00E94980CB79B09C091
:101D300006C0B69BEFCF83E060E00E94980C0E9443
:101D4000AC031F91089581E0809384000895109260
:101D5000840080E00E948E0C80E00E94BB0C80E03A
:101D60000E94B10C0895282F8A3098F4893061F0D0
:101D70008091820090E043E0880F991F4A95E1F737
:101D80000196820F911D02C081E590E00E94870CB0
:101D9000089580E008950F931F93DF93CF930F92E0
:101DA000CDB7DEB78A3008F05EC0893009F454C080
:101DB00090918200092F10E053E0000F111F5A95F7
:101DC000E1F70F5F1F4F080F111D833019F18430A9
:101DD00038F4813099F0962F91508230B0F409C0D8
:101DE000853021F18530E8F0863029F18730C1F562
:101DF0002CC09A3FC0F560937C0032C0862F815082
:101E0000833688F560937D002BC0983C60F5609325
:101E10007E0026C0862F81508A3F28F560937F0080
:101E20001FC06A3000F5609381001AC06A30D8F490
:101E30006093800015C06230B0F460938300862FF9
:101E400069830E94C50C69810BC0862F81508A3F2F
:101E500050F46093710004C06A3028F401E510E08A
:101E6000C8010E947D0C0F90CF91DF911F910F91BF
:101E700008951F93CF93DF93182FC82FD0E063E00E
:101E8000CC0FDD1F6A95E1F7CE0101960E94870C09
:101E900080937C0081508A3F18F08EE180937C0013
:101EA000CE0102960E94870C80937D00815083367C
:101EB00018F083E080937D00CE0103960E94870C8A
:101EC00080937E008150883C18F082E380937E00EE
:101ED000CE0104960E94870C80937F0081508A3F38
:101EE00018F082E380937F00CE0106960E94870C53
:101EF000809380008A3018F085E080938000CE01C6
:101F000005960E94870C809381008A3018F085E046
:101F100080938100812F0E94DE0CCE0108960E94E2
:101F2000870C8093710081508A3F18F08AEF80936C
:101F30007100DF91CF911F91089584E00E94660C9B
:101F400081E590E00E94870C809382008A3038F00F
:101F50001092820081E590E060E00E947D0C80910B
:101F600082000E94390F0895809182000E94390FEB
:101F70008091820060E040E00E94B00280917E008B
:101F800064E040E00E946402809181006AE040E0E9
:101F90000E94B002809180006EE040E00E94B0029A
:101FA00080917C0063E041E00E94640280917D00AA
:101FB00067E041E00E94950280917F006DE041E082
:101FC0000E946402089580918400813021F0823063
:101FD00009F042C021C086E00E94660C8FE79AE1BA
:101FE000A6E081509040A040E1F700C0000082E0F0
:101FF0000E94660CB69930C0809182000E94390F11
:102000000E94F80C882341F10E94AC038091840067
:102010008F5F8093840020C0B7991EC00E94300D4E
:102020008823E1F00E94770D8823C1F00E94B60D4D
:102030008823A1F00E943A0E882391F080918300BA
:10204000813041F485E00E941C06B7990BC00E94C4
:102050007B0CFBCF0E94730E82E0089584E008950C
:1020600084E008950E94AC03A7E8B3E11197F1F76B
:1020700000C0000083E00895991B79E004C0991F17
:10208000961708F0961B881F7A95C9F780950895D2
:10209000AA1BBB1B51E107C0AA1FBB1FA617B7078E
:1020A00010F0A61BB70B881F991F5A95A9F78095AA
:1020B0009095BC01CD01089597FB092E07260AD003
:1020C00077FD04D0E5DF06D000201AF47095619505
:1020D0007F4F0895F6F7909581959F4F0895FB01E6
:1020E000DC0102C005900D9241505040D8F7089590
:0420F000F894FFCF92
:1020F400010103000400000002F30CD50CD80CDB32
:022104000CFAD3
:00000001FF
